{
  "transactions": [
    {
      "hash": "0x1bc3619ed36a6a883db787406fbeb805eaa3640d4eab9f32fddbc01bff4e92bb",
      "transactionType": "CALL",
      "contractName": null,
      "contractAddress": "0x707C39F1AaA7c8051287b3b231BccAa8CD72138f",
      "function": "updateSafetyModuleMetadata(address,address,(string,string,string,string))",
      "arguments": [
        "0xD2168C6c33fEe907FB12024E5e7e9219083fBb19",
        "0x973351191dcC578fC1CE3c650102BAacb76310Ba",
        "(\"Union Safety Module\", \"\", \"\", \"{\\\\protectionCapAmountUsd\\\\:\\\\\\\\,\\\\shortfallDistributionMethod\\\\:\\\\Prorata\\\\}\")"
      ],
      "transaction": {
        "type": "0x02",
        "from": "0xbbd3321f377742c4b3fe458b270c2f271d3294d8",
        "to": "0x707c39f1aaa7c8051287b3b231bccaa8cd72138f",
        "gas": "0xfd07",
        "value": "0x0",
        "data": "0x99819dd3000000000000000000000000d2168c6c33fee907fb12024e5e7e9219083fbb19000000000000000000000000973351191dcc578fc1ce3c650102baacb76310ba0000000000000000000000000000000000000000000000000000000000000060000000000000000000000000000000000000000000000000000000000000008000000000000000000000000000000000000000000000000000000000000000c000000000000000000000000000000000000000000000000000000000000000e000000000000000000000000000000000000000000000000000000000000001000000000000000000000000000000000000000000000000000000000000000013556e696f6e20536166657479204d6f64756c65000000000000000000000000000000000000000000000000000000000000000000000000000000000000000000000000000000000000000000000000000000000000000000000000000000000000000000000000000000000000000000000000000000000000000000000000457b5c70726f74656374696f6e436170416d6f756e745573645c3a5c5c2c5c73686f727466616c6c446973747269627574696f6e4d6574686f645c3a5c50726f726174615c7d000000000000000000000000000000000000000000000000000000",
        "nonce": "0x3",
        "accessList": []
      },
      "additionalContracts": [],
      "isFixedGasLimit": false
    }
  ],
  "receipts": [
    {
      "transactionHash": "0x1bc3619ed36a6a883db787406fbeb805eaa3640d4eab9f32fddbc01bff4e92bb",
      "transactionIndex": "0x0",
      "blockHash": "0xefe58d882f8fb5bd37d6f2b89716b6b296cd4ef7cbd8f54b0f3c4248d06d959d",
      "blockNumber": "0x12b79b0",
      "from": "0xBBD3321f377742c4b3fe458b270c2F271d3294D8",
      "to": "0x707C39F1AaA7c8051287b3b231BccAa8CD72138f",
      "cumulativeGasUsed": "0xb730",
      "gasUsed": "0xb730",
      "contractAddress": null,
      "logs": [
        {
          "address": "0xD2168C6c33fEe907FB12024E5e7e9219083fBb19",
          "topics": [
            "0x62ef726a6aa14aa74096b251c6318775d5a59699f09be6cc5d26091d22dc7c5d",
            "0x000000000000000000000000973351191dcc578fc1ce3c650102baacb76310ba"
          ],
          "data": "0x0000000000000000000000000000000000000000000000000000000000000020000000000000000000000000000000000000000000000000000000000000008000000000000000000000000000000000000000000000000000000000000000c000000000000000000000000000000000000000000000000000000000000000e000000000000000000000000000000000000000000000000000000000000001000000000000000000000000000000000000000000000000000000000000000013556e696f6e20536166657479204d6f64756c65000000000000000000000000000000000000000000000000000000000000000000000000000000000000000000000000000000000000000000000000000000000000000000000000000000000000000000000000000000000000000000000000000000000000000000000000457b5c70726f74656374696f6e436170416d6f756e745573645c3a5c5c2c5c73686f727466616c6c446973747269627574696f6e4d6574686f645c3a5c50726f726174615c7d000000000000000000000000000000000000000000000000000000",
          "blockHash": "0xefe58d882f8fb5bd37d6f2b89716b6b296cd4ef7cbd8f54b0f3c4248d06d959d",
          "blockNumber": "0x12b79b0",
          "transactionHash": "0x1bc3619ed36a6a883db787406fbeb805eaa3640d4eab9f32fddbc01bff4e92bb",
          "transactionIndex": "0x0",
          "logIndex": "0x0",
          "removed": false
        }
      ],
      "status": "0x1",
      "logsBloom": "0x00000000000000000000100000000000000000000000000000000000000000000000000000001000000000000000000000000000000000000000000000000000000000000000000000000000000040000000000000000000000000000000020000000000000000000000000000000000000000000000000000000000010000000000000004000000000000000000000000000000000000000000000080000000000000000000000000200000000000000000000000000000000000000000000000000000000000000000000000000000000000000000000000000000000000000000000000000000000000000000000000000000000000020000000000000000",
      "type": "0x2",
      "effectiveGasPrice": "0x4f62fc7c2"
    }
  ],
  "libraries": [],
  "pending": [],
  "returns": {},
  "timestamp": 1712766670,
  "chain": 1,
  "commit": "6c9152e"
}