{
  "transactions": [
    {
      "hash": "0x473089a55334235b1043c27b1c223bde0a6a028b581357d03b9aff9de45d1a7e",
      "transactionType": "CALL",
      "contractName": null,
      "contractAddress": "0x707C39F1AaA7c8051287b3b231BccAa8CD72138f",
      "function": "updateSafetyModuleMetadata(address,address,(string,string,string,string))",
      "arguments": [
        "0xD2168C6c33fEe907FB12024E5e7e9219083fBb19",
        "0x973351191dcC578fC1CE3c650102BAacb76310Ba",
        "(\"Union Safety Module\", \"This safety module protects Union users against significant hacks, bugs, or malfeasance.\", \"https://assets.coingecko.com/coins/images/30556/standard/Mark.png?1712560901\", \"{\\\\protectionCapAmountUsd\\\\:\\\\\\\\,\\\\shortfallDistributionMethod\\\\:\\\\Prorata\\\\}\")"
      ],
      "transaction": {
        "type": "0x02",
        "from": "0xbbd3321f377742c4b3fe458b270c2f271d3294d8",
        "to": "0x707c39f1aaa7c8051287b3b231bccaa8cd72138f",
        "gas": "0x12503",
        "value": "0x0",
        "data": "0x99819dd3000000000000000000000000d2168c6c33fee907fb12024e5e7e9219083fbb19000000000000000000000000973351191dcc578fc1ce3c650102baacb76310ba0000000000000000000000000000000000000000000000000000000000000060000000000000000000000000000000000000000000000000000000000000008000000000000000000000000000000000000000000000000000000000000000c0000000000000000000000000000000000000000000000000000000000000014000000000000000000000000000000000000000000000000000000000000001c00000000000000000000000000000000000000000000000000000000000000013556e696f6e20536166657479204d6f64756c650000000000000000000000000000000000000000000000000000000000000000000000000000000000000000585468697320736166657479206d6f64756c652070726f746563747320556e696f6e20757365727320616761696e7374207369676e69666963616e74206861636b732c20627567732c206f72206d616c66656173616e63652e0000000000000000000000000000000000000000000000000000000000000000000000000000004c68747470733a2f2f6173736574732e636f696e6765636b6f2e636f6d2f636f696e732f696d616765732f33303535362f7374616e646172642f4d61726b2e706e673f31373132353630393031000000000000000000000000000000000000000000000000000000000000000000000000000000000000000000000000000000457b5c70726f74656374696f6e436170416d6f756e745573645c3a5c5c2c5c73686f727466616c6c446973747269627574696f6e4d6574686f645c3a5c50726f726174615c7d000000000000000000000000000000000000000000000000000000",
        "nonce": "0x3",
        "accessList": []
      },
      "additionalContracts": [],
      "isFixedGasLimit": false
    }
  ],
  "receipts": [
    {
      "transactionHash": "0x473089a55334235b1043c27b1c223bde0a6a028b581357d03b9aff9de45d1a7e",
      "transactionIndex": "0x0",
      "blockHash": "0x96a7f6e850eb5b48ae067bc3be88d674dbe15b9fac1e8a7bbb5f7836771b07a8",
      "blockNumber": "0x12b836c",
      "from": "0xBBD3321f377742c4b3fe458b270c2F271d3294D8",
      "to": "0x707C39F1AaA7c8051287b3b231BccAa8CD72138f",
      "cumulativeGasUsed": "0xc85a",
      "gasUsed": "0xc85a",
      "contractAddress": null,
      "logs": [
        {
          "address": "0xD2168C6c33fEe907FB12024E5e7e9219083fBb19",
          "topics": [
            "0x62ef726a6aa14aa74096b251c6318775d5a59699f09be6cc5d26091d22dc7c5d",
            "0x000000000000000000000000973351191dcc578fc1ce3c650102baacb76310ba"
          ],
          "data": "0x0000000000000000000000000000000000000000000000000000000000000020000000000000000000000000000000000000000000000000000000000000008000000000000000000000000000000000000000000000000000000000000000c0000000000000000000000000000000000000000000000000000000000000014000000000000000000000000000000000000000000000000000000000000001c00000000000000000000000000000000000000000000000000000000000000013556e696f6e20536166657479204d6f64756c650000000000000000000000000000000000000000000000000000000000000000000000000000000000000000585468697320736166657479206d6f64756c652070726f746563747320556e696f6e20757365727320616761696e7374207369676e69666963616e74206861636b732c20627567732c206f72206d616c66656173616e63652e0000000000000000000000000000000000000000000000000000000000000000000000000000004c68747470733a2f2f6173736574732e636f696e6765636b6f2e636f6d2f636f696e732f696d616765732f33303535362f7374616e646172642f4d61726b2e706e673f31373132353630393031000000000000000000000000000000000000000000000000000000000000000000000000000000000000000000000000000000457b5c70726f74656374696f6e436170416d6f756e745573645c3a5c5c2c5c73686f727466616c6c446973747269627574696f6e4d6574686f645c3a5c50726f726174615c7d000000000000000000000000000000000000000000000000000000",
          "blockHash": "0x96a7f6e850eb5b48ae067bc3be88d674dbe15b9fac1e8a7bbb5f7836771b07a8",
          "blockNumber": "0x12b836c",
          "transactionHash": "0x473089a55334235b1043c27b1c223bde0a6a028b581357d03b9aff9de45d1a7e",
          "transactionIndex": "0x0",
          "logIndex": "0x0",
          "removed": false
        }
      ],
      "status": "0x1",
      "logsBloom": "0x00000000000000000000100000000000000000000000000000000000000000000000000000001000000000000000000000000000000000000000000000000000000000000000000000000000000040000000000000000000000000000000020000000000000000000000000000000000000000000000000000000000010000000000000004000000000000000000000000000000000000000000000080000000000000000000000000200000000000000000000000000000000000000000000000000000000000000000000000000000000000000000000000000000000000000000000000000000000000000000000000000000000000020000000000000000",
      "type": "0x2",
      "effectiveGasPrice": "0x31448323b"
    }
  ],
  "libraries": [],
  "pending": [],
  "returns": {},
  "timestamp": 1712796626,
  "chain": 1,
  "commit": "1c76017"
}