{
  "transactions": [
    {
      "hash": "0xbcd5c7b32b75edca25ce8cc79fa3e12141a8ef75958cc2a57ab961dad583123e",
      "transactionType": "CALL",
      "contractName": null,
      "contractAddress": "0x707C39F1AaA7c8051287b3b231BccAa8CD72138f",
      "function": "deploySafetyModule(address,address,((uint256,address)[],(address,address,bool)[],(uint64,uint64,uint64)),bytes32)",
      "arguments": [
        "0xBBD3321f377742c4b3fe458b270c2F271d3294D8",
        "0xBBD3321f377742c4b3fe458b270c2F271d3294D8",
        "([(3000, 0x3A2819B07981234F825E952f32Cf977db5EDBf7C)], [(0xb99B3C8228Bf494045FC8E1e40410Ce29B7d5058, 0xBBD3321f377742c4b3fe458b270c2F271d3294D8, true)], (1814400, 1814400, 1209600))",
        "0x0100000000000000000000000000000000000000000000000000000000000000"
      ],
      "transaction": {
        "type": "0x02",
        "from": "0xf39fd6e51aad88f6f4ce6ab8827279cfffb92266",
        "to": "0x707c39f1aaa7c8051287b3b231bccaa8cd72138f",
        "gas": "0xaaec9",
        "value": "0x0",
        "data": "0x93134430000000000000000000000000bbd3321f377742c4b3fe458b270c2f271d3294d8000000000000000000000000bbd3321f377742c4b3fe458b270c2f271d3294d80000000000000000000000000000000000000000000000000000000000000080010000000000000000000000000000000000000000000000000000000000000000000000000000000000000000000000000000000000000000000000000000a0000000000000000000000000000000000000000000000000000000000000010000000000000000000000000000000000000000000000000000000000001baf8000000000000000000000000000000000000000000000000000000000001baf80000000000000000000000000000000000000000000000000000000000012750000000000000000000000000000000000000000000000000000000000000000010000000000000000000000000000000000000000000000000000000000000bb80000000000000000000000003a2819b07981234f825e952f32cf977db5edbf7c0000000000000000000000000000000000000000000000000000000000000001000000000000000000000000b99b3c8228bf494045fc8e1e40410ce29b7d5058000000000000000000000000bbd3321f377742c4b3fe458b270c2f271d3294d80000000000000000000000000000000000000000000000000000000000000001",
        "nonce": "0x281",
        "accessList": []
      },
      "additionalContracts": [
        {
          "transactionType": "CREATE2",
          "address": "0x5927fC5ec0D9Ec40F1e5593E19F1F3AFd3839fDB",
          "initCode": "0x3d602d80600a3d3981f3363d3d373d3d3d363d73773eb50c4b95a3b4e43d2dd1e1e9e526c72c158f5af43d82803e903d91602b57fd5bf3"
        },
        {
          "transactionType": "CREATE2",
          "address": "0xC5debBe1A26e41DE5E3d6287B57AE721aD649AA3",
          "initCode": "0x3d602d80600a3d3981f3363d3d373d3d3d363d73dca81e102fb69df7e34838a50d17607a6ef806755af43d82803e903d91602b57fd5bf3"
        }
      ],
      "isFixedGasLimit": false
    }
  ],
  "receipts": [
    {
      "transactionHash": "0xbcd5c7b32b75edca25ce8cc79fa3e12141a8ef75958cc2a57ab961dad583123e",
      "transactionIndex": "0x0",
      "blockHash": "0xb968accee15a24e41008493b3ab5a48fc21f33a94cfc28f942113c7b8ea48517",
      "blockNumber": "0x12b5e30",
      "from": "0xf39Fd6e51aad88F6F4ce6aB8827279cffFb92266",
      "to": "0x707C39F1AaA7c8051287b3b231BccAa8CD72138f",
      "cumulativeGasUsed": "0x7bbf8",
      "gasUsed": "0x7bbf8",
      "contractAddress": null,
      "logs": [
        {
          "address": "0x6eA5E28FAcbFfed49547e1f358bbEf7f22Ec03Be",
          "topics": [
            "0x8af78f9b00e7e7acd1c912b28b5f54f3cab741c2c3e143fdb027e6d5d5ba5718"
          ],
          "data": "0x0000000000000000000000005927fc5ec0d9ec40f1e5593e19f1f3afd3839fdb",
          "blockHash": "0xb968accee15a24e41008493b3ab5a48fc21f33a94cfc28f942113c7b8ea48517",
          "blockNumber": "0x12b5e30",
          "transactionHash": "0xbcd5c7b32b75edca25ce8cc79fa3e12141a8ef75958cc2a57ab961dad583123e",
          "transactionIndex": "0x0",
          "logIndex": "0x0",
          "removed": false
        },
        {
          "address": "0x5927fC5ec0D9Ec40F1e5593E19F1F3AFd3839fDB",
          "topics": [
            "0x8be0079c531659141344cd1fd0a4f28419497f9722a3daafe3b4186f6b6457e0",
            "0x0000000000000000000000000000000000000000000000000000000000000000",
            "0x000000000000000000000000bbd3321f377742c4b3fe458b270c2f271d3294d8"
          ],
          "data": "0x",
          "blockHash": "0xb968accee15a24e41008493b3ab5a48fc21f33a94cfc28f942113c7b8ea48517",
          "blockNumber": "0x12b5e30",
          "transactionHash": "0xbcd5c7b32b75edca25ce8cc79fa3e12141a8ef75958cc2a57ab961dad583123e",
          "transactionIndex": "0x0",
          "logIndex": "0x1",
          "removed": false
        },
        {
          "address": "0x5927fC5ec0D9Ec40F1e5593E19F1F3AFd3839fDB",
          "topics": [
            "0xa4336c0cb1e245b95ad204faed7e940d6dc999684fd8b5e1ff597a0c4efca8ab",
            "0x000000000000000000000000bbd3321f377742c4b3fe458b270c2f271d3294d8"
          ],
          "data": "0x",
          "blockHash": "0xb968accee15a24e41008493b3ab5a48fc21f33a94cfc28f942113c7b8ea48517",
          "blockNumber": "0x12b5e30",
          "transactionHash": "0xbcd5c7b32b75edca25ce8cc79fa3e12141a8ef75958cc2a57ab961dad583123e",
          "transactionIndex": "0x0",
          "logIndex": "0x2",
          "removed": false
        },
        {
          "address": "0x0e3D652E776fA883647C8D360ad9ad77f8e1B5a7",
          "topics": [
            "0x3774cf38e30b068db1f04da17acc1ec29718426ab79bf23c80ddd83166600cef",
            "0x0000000000000000000000005927fc5ec0d9ec40f1e5593e19f1f3afd3839fdb",
            "0x0000000000000000000000000000000000000000000000000000000000000000",
            "0x0000000000000000000000000000000000000000000000000000000000000000"
          ],
          "data": "0x000000000000000000000000c5debbe1a26e41de5e3d6287b57ae721ad649aa30000000000000000000000000000000000000000000000000000000000000012",
          "blockHash": "0xb968accee15a24e41008493b3ab5a48fc21f33a94cfc28f942113c7b8ea48517",
          "blockNumber": "0x12b5e30",
          "transactionHash": "0xbcd5c7b32b75edca25ce8cc79fa3e12141a8ef75958cc2a57ab961dad583123e",
          "transactionIndex": "0x0",
          "logIndex": "0x3",
          "removed": false
        },
        {
          "address": "0x5927fC5ec0D9Ec40F1e5593E19F1F3AFd3839fDB",
          "topics": [
            "0x020b0eb6b927cc8fd11512cbae008d6f91a7524a39383a85f932ecf6d9b2ee0c",
            "0x0000000000000000000000000000000000000000000000000000000000000000"
          ],
          "data": "0x0000000000000000000000003a2819b07981234f825e952f32cf977db5edbf7c000000000000000000000000c5debbe1a26e41de5e3d6287b57ae721ad649aa3",
          "blockHash": "0xb968accee15a24e41008493b3ab5a48fc21f33a94cfc28f942113c7b8ea48517",
          "blockNumber": "0x12b5e30",
          "transactionHash": "0xbcd5c7b32b75edca25ce8cc79fa3e12141a8ef75958cc2a57ab961dad583123e",
          "transactionIndex": "0x0",
          "logIndex": "0x4",
          "removed": false
        },
        {
          "address": "0x5927fC5ec0D9Ec40F1e5593E19F1F3AFd3839fDB",
          "topics": [
            "0x456bef0ffdbfeb339cb88afbee490d63c29dc5f025ac12112fb45eacbf99e036"
          ],
          "data": "0x00000000000000000000000000000000000000000000000000000000000000a0000000000000000000000000000000000000000000000000000000000000010000000000000000000000000000000000000000000000000000000000001baf8000000000000000000000000000000000000000000000000000000000001baf80000000000000000000000000000000000000000000000000000000000012750000000000000000000000000000000000000000000000000000000000000000010000000000000000000000000000000000000000000000000000000000000bb80000000000000000000000003a2819b07981234f825e952f32cf977db5edbf7c0000000000000000000000000000000000000000000000000000000000000001000000000000000000000000b99b3c8228bf494045fc8e1e40410ce29b7d5058000000000000000000000000bbd3321f377742c4b3fe458b270c2f271d3294d80000000000000000000000000000000000000000000000000000000000000001",
          "blockHash": "0xb968accee15a24e41008493b3ab5a48fc21f33a94cfc28f942113c7b8ea48517",
          "blockNumber": "0x12b5e30",
          "transactionHash": "0xbcd5c7b32b75edca25ce8cc79fa3e12141a8ef75958cc2a57ab961dad583123e",
          "transactionIndex": "0x0",
          "logIndex": "0x5",
          "removed": false
        }
      ],
      "status": "0x1",
      "logsBloom": "0x00000008000000000000010000400000000000200014000000800000000000000000000100000000000000000000000000400000000000020000008000000000000000000000000000000000000000000001000000000000000002000000002000000000020000004000000000040800000004000000000000000000000002400020000000000000000000000000000000014000000000000000000000000000000000200000000000000000800000000000000000000000020000000000000000000000200000000000008000000000000000000000000000008000000020000000000000000000000000000000000000004000000000001000400001010000",
      "type": "0x2",
      "effectiveGasPrice": "0x92a8c3624"
    }
  ],
  "libraries": [],
  "pending": [],
  "returns": {},
  "timestamp": 1712681363,
  "chain": 1,
  "commit": "b281a57"
}