{
  "transactions": [
    {
      "hash": "0x11bbb83aba5ae437261209f9d31d4b4b63dfb959780db97ce4c1bd40e6b95c00",
      "transactionType": "CALL",
      "contractName": null,
      "contractAddress": "0x707C39F1AaA7c8051287b3b231BccAa8CD72138f",
      "function": "deployOwnableTrigger(address,(string,string,string,string),bytes32)",
      "arguments": [
        "0xBBD3321f377742c4b3fe458b270c2F271d3294D8",
        "(\"\", \"\", \"\", \"\")",
        "0x0100000000000000000000000000000000000000000000000000000000000000"
      ],
      "transaction": {
        "type": "0x02",
        "from": "0xbbd3321f377742c4b3fe458b270c2f271d3294d8",
        "to": "0x707c39f1aaa7c8051287b3b231bccaa8cd72138f",
        "gas": "0x921d7",
        "value": "0x0",
        "data": "0x412e431e000000000000000000000000bbd3321f377742c4b3fe458b270c2f271d3294d800000000000000000000000000000000000000000000000000000000000000600100000000000000000000000000000000000000000000000000000000000000000000000000000000000000000000000000000000000000000000000000008000000000000000000000000000000000000000000000000000000000000000a000000000000000000000000000000000000000000000000000000000000000c000000000000000000000000000000000000000000000000000000000000000e00000000000000000000000000000000000000000000000000000000000000000000000000000000000000000000000000000000000000000000000000000000000000000000000000000000000000000000000000000000000000000000000000000000000000000000000000000000000000000000000000000000000000000",
        "nonce": "0x1",
        "accessList": []
      },
      "additionalContracts": [
        {
          "transactionType": "CREATE2",
          "address": "0x6C306E34A8CF50f12A70596Cd83c65be9DF51157",
          "initCode": "0x608060405234801561001057600080fd5b506040516107b23803806107b283398101604081905261002f916100ce565b6000805460405183926001600160a01b0380851693610100900416917f8be0079c531659141344cd1fd0a4f28419497f9722a3daafe3b4186f6b6457e09190a3600080546001600160a01b0390921661010002610100600160a81b031990921691909117905561009e816100a4565b506100fe565b6001600160a01b0381166100cb5760405163e6c4247b60e01b815260040160405180910390fd5b50565b6000602082840312156100e057600080fd5b81516001600160a01b03811681146100f757600080fd5b9392505050565b6106a58061010d6000396000f3fe608060405234801561001057600080fd5b50600436106100725760003560e01c8063c19d93fb11610050578063c19d93fb146100d8578063e30c3978146100f2578063f2fde38b1461011257600080fd5b806379ba5097146100775780637fec8d38146100815780638da5cb5b14610089575b600080fd5b61007f610125565b005b61007f610215565b6000546100ae90610100900473ffffffffffffffffffffffffffffffffffffffff1681565b60405173ffffffffffffffffffffffffffffffffffffffff90911681526020015b60405180910390f35b6000546100e59060ff1681565b6040516100cf91906105f1565b6001546100ae9073ffffffffffffffffffffffffffffffffffffffff1681565b61007f610120366004610632565b610278565b60015473ffffffffffffffffffffffffffffffffffffffff163314610176576040517f82b4290000000000000000000000000000000000000000000000000000000000815260040160405180910390fd5b600180547fffffffffffffffffffffffff000000000000000000000000000000000000000016905560008054336101008181027fffffffffffffffffffffff0000000000000000000000000000000000000000ff8416178455604051920473ffffffffffffffffffffffffffffffffffffffff1692909183917f8be0079c531659141344cd1fd0a4f28419497f9722a3daafe3b4186f6b6457e091a350565b600054610100900473ffffffffffffffffffffffffffffffffffffffff16331461026b576040517f82b4290000000000000000000000000000000000000000000000000000000000815260040160405180910390fd5b6102756001610353565b50565b600054610100900473ffffffffffffffffffffffffffffffffffffffff1633146102ce576040517f82b4290000000000000000000000000000000000000000000000000000000000815260040160405180910390fd5b6102d78161041b565b600180547fffffffffffffffffffffffff00000000000000000000000000000000000000001673ffffffffffffffffffffffffffffffffffffffff83811691821790925560008054604051929361010090910416917f38d16b8cac22d99fc7c124b9cd0de2d3fa1faef420bfe791d8c362d765e227009190a350565b600080546103649060ff1683610468565b61039a576040517f8f9a780c00000000000000000000000000000000000000000000000000000000815260040160405180910390fd5b600080548391907fffffffffffffffffffffffffffffffffffffffffffffffffffffffffffffff001660018360028111156103d7576103d76105c2565b02179055508160028111156103ee576103ee6105c2565b6040517fe2ae03a0d0627b34152200311693ba409393c7d1ebdd0a246ba3c0253abc263f90600090a25090565b73ffffffffffffffffffffffffffffffffffffffff8116610275576040517fe6c4247b00000000000000000000000000000000000000000000000000000000815260040160405180910390fd5b6000600183600281111561047e5761047e6105c2565b0361048b575060006105bc565b81600281111561049d5761049d6105c2565b8360028111156104af576104af6105c2565b036104bc575060016105bc565b60008360028111156104d0576104d06105c2565b1480156104ee575060028260028111156104ec576104ec6105c2565b145b156104fb575060016105bc565b600283600281111561050f5761050f6105c2565b14801561052d5750600082600281111561052b5761052b6105c2565b145b1561053a575060016105bc565b600083600281111561054e5761054e6105c2565b14801561056c5750600182600281111561056a5761056a6105c2565b145b15610579575060016105bc565b600283600281111561058d5761058d6105c2565b1480156105ab575060018260028111156105a9576105a96105c2565b145b156105b8575060016105bc565b5060005b92915050565b7f4e487b7100000000000000000000000000000000000000000000000000000000600052602160045260246000fd5b602081016003831061062c577f4e487b7100000000000000000000000000000000000000000000000000000000600052602160045260246000fd5b91905290565b60006020828403121561064457600080fd5b813573ffffffffffffffffffffffffffffffffffffffff8116811461066857600080fd5b939250505056fea2646970667358221220968733513ee97f62370416f8e53552ed899cc4add2e10746869e9bcdb0d9c4bd64736f6c63430008160033000000000000000000000000bbd3321f377742c4b3fe458b270c2f271d3294d8"
        }
      ],
      "isFixedGasLimit": false
    },
    {
      "hash": "0x1b3524ce289219a7b9c1a30469f1cdba0ad2f68366713be5e887c2ecaf4255b4",
      "transactionType": "CALL",
      "contractName": null,
      "contractAddress": "0x707C39F1AaA7c8051287b3b231BccAa8CD72138f",
      "function": "deploySafetyModule(address,address,((uint256,address)[],(address,address,bool)[],(uint64,uint64,uint64)),bytes32)",
      "arguments": [
        "0xBBD3321f377742c4b3fe458b270c2F271d3294D8",
        "0xD83b4686e434B402c2Ce92f4794536962b2BE3E8",
        "([(3000, 0x3A2819B07981234F825E952f32Cf977db5EDBf7C)], [(0x6C306E34A8CF50f12A70596Cd83c65be9DF51157, 0xBBD3321f377742c4b3fe458b270c2F271d3294D8, true)], (1814400, 1814400, 1209600))",
        "0x0100000000000000000000000000000000000000000000000000000000000000"
      ],
      "transaction": {
        "type": "0x02",
        "from": "0xbbd3321f377742c4b3fe458b270c2f271d3294d8",
        "to": "0x707c39f1aaa7c8051287b3b231bccaa8cd72138f",
        "gas": "0xaaec9",
        "value": "0x0",
        "data": "0x93134430000000000000000000000000bbd3321f377742c4b3fe458b270c2f271d3294d8000000000000000000000000d83b4686e434b402c2ce92f4794536962b2be3e80000000000000000000000000000000000000000000000000000000000000080010000000000000000000000000000000000000000000000000000000000000000000000000000000000000000000000000000000000000000000000000000a0000000000000000000000000000000000000000000000000000000000000010000000000000000000000000000000000000000000000000000000000001baf8000000000000000000000000000000000000000000000000000000000001baf80000000000000000000000000000000000000000000000000000000000012750000000000000000000000000000000000000000000000000000000000000000010000000000000000000000000000000000000000000000000000000000000bb80000000000000000000000003a2819b07981234f825e952f32cf977db5edbf7c00000000000000000000000000000000000000000000000000000000000000010000000000000000000000006c306e34a8cf50f12a70596cd83c65be9df51157000000000000000000000000bbd3321f377742c4b3fe458b270c2f271d3294d80000000000000000000000000000000000000000000000000000000000000001",
        "nonce": "0x2",
        "accessList": []
      },
      "additionalContracts": [
        {
          "transactionType": "CREATE2",
          "address": "0x973351191dcC578fC1CE3c650102BAacb76310Ba",
          "initCode": "0x3d602d80600a3d3981f3363d3d373d3d3d363d73773eb50c4b95a3b4e43d2dd1e1e9e526c72c158f5af43d82803e903d91602b57fd5bf3"
        },
        {
          "transactionType": "CREATE2",
          "address": "0xA98Cd8E96EC997Af48c1700c87d77C09D5eb8707",
          "initCode": "0x3d602d80600a3d3981f3363d3d373d3d3d363d73dca81e102fb69df7e34838a50d17607a6ef806755af43d82803e903d91602b57fd5bf3"
        }
      ],
      "isFixedGasLimit": false
    },
    {
      "hash": "0xa0ab30d36d90596ff0a57d4d207e7d7a46abe54238deffb4ba1a1ed76ca5c2ae",
      "transactionType": "CALL",
      "contractName": null,
      "contractAddress": "0x707C39F1AaA7c8051287b3b231BccAa8CD72138f",
      "function": "updateSafetyModuleMetadata(address,address,(string,string,string,string))",
      "arguments": [
        "0xD2168C6c33fEe907FB12024E5e7e9219083fBb19",
        "0x973351191dcC578fC1CE3c650102BAacb76310Ba",
        "(\"Union Safety Module\", \"This safety module protects Union users against significant hacks, bugs, or malfeasance.\", \"https://assets.coingecko.com/coins/images/30556/standard/Mark.png?1712560901\", \"{\\\\protectionCapAmountUsd\\\\:\\\\\\\\,\\\\shortfallDistributionMethod\\\\:\\\\Prorata\\\\}\")"
      ],
      "transaction": {
        "type": "0x02",
        "from": "0xbbd3321f377742c4b3fe458b270c2f271d3294d8",
        "to": "0x707c39f1aaa7c8051287b3b231bccaa8cd72138f",
        "gas": "0x12503",
        "value": "0x0",
        "data": "0x99819dd3000000000000000000000000d2168c6c33fee907fb12024e5e7e9219083fbb19000000000000000000000000973351191dcc578fc1ce3c650102baacb76310ba0000000000000000000000000000000000000000000000000000000000000060000000000000000000000000000000000000000000000000000000000000008000000000000000000000000000000000000000000000000000000000000000c0000000000000000000000000000000000000000000000000000000000000014000000000000000000000000000000000000000000000000000000000000001c00000000000000000000000000000000000000000000000000000000000000013556e696f6e20536166657479204d6f64756c650000000000000000000000000000000000000000000000000000000000000000000000000000000000000000585468697320736166657479206d6f64756c652070726f746563747320556e696f6e20757365727320616761696e7374207369676e69666963616e74206861636b732c20627567732c206f72206d616c66656173616e63652e0000000000000000000000000000000000000000000000000000000000000000000000000000004c68747470733a2f2f6173736574732e636f696e6765636b6f2e636f6d2f636f696e732f696d616765732f33303535362f7374616e646172642f4d61726b2e706e673f31373132353630393031000000000000000000000000000000000000000000000000000000000000000000000000000000000000000000000000000000457b5c70726f74656374696f6e436170416d6f756e745573645c3a5c5c2c5c73686f727466616c6c446973747269627574696f6e4d6574686f645c3a5c50726f726174615c7d000000000000000000000000000000000000000000000000000000",
        "nonce": "0x3",
        "accessList": []
      },
      "additionalContracts": [],
      "isFixedGasLimit": false
    }
  ],
  "receipts": [
    {
      "transactionHash": "0x11bbb83aba5ae437261209f9d31d4b4b63dfb959780db97ce4c1bd40e6b95c00",
      "transactionIndex": "0x0",
      "blockHash": "0x7449db2aa0a4106b63cd9afbad7706eb893f847cd44db3bb3252999c1cc18f20",
      "blockNumber": "0x12c41c5",
      "from": "0xBBD3321f377742c4b3fe458b270c2F271d3294D8",
      "to": "0x707C39F1AaA7c8051287b3b231BccAa8CD72138f",
      "cumulativeGasUsed": "0x69d0d",
      "gasUsed": "0x69d0d",
      "contractAddress": null,
      "logs": [
        {
          "address": "0x6C306E34A8CF50f12A70596Cd83c65be9DF51157",
          "topics": [
            "0x8be0079c531659141344cd1fd0a4f28419497f9722a3daafe3b4186f6b6457e0",
            "0x0000000000000000000000000000000000000000000000000000000000000000",
            "0x000000000000000000000000bbd3321f377742c4b3fe458b270c2f271d3294d8"
          ],
          "data": "0x",
          "blockHash": "0x7449db2aa0a4106b63cd9afbad7706eb893f847cd44db3bb3252999c1cc18f20",
          "blockNumber": "0x12c41c5",
          "transactionHash": "0x11bbb83aba5ae437261209f9d31d4b4b63dfb959780db97ce4c1bd40e6b95c00",
          "transactionIndex": "0x0",
          "logIndex": "0x0",
          "removed": false
        },
        {
          "address": "0xBba03B061CcA848cc3E160417d05261FE5693F41",
          "topics": [
            "0x007121f3dbba459406112bc86983cc7076ab5764afe19c2954f02bd9da39bd1a",
            "0x000000000000000000000000bbd3321f377742c4b3fe458b270c2f271d3294d8"
          ],
          "data": "0x0000000000000000000000006c306e34a8cf50f12a70596cd83c65be9df5115700000000000000000000000000000000000000000000000000000000000000a000000000000000000000000000000000000000000000000000000000000000c000000000000000000000000000000000000000000000000000000000000000e000000000000000000000000000000000000000000000000000000000000001000000000000000000000000000000000000000000000000000000000000000000000000000000000000000000000000000000000000000000000000000000000000000000000000000000000000000000000000000000000000000000000000000000000000000000000000000000000000000000000000000000000000000000",
          "blockHash": "0x7449db2aa0a4106b63cd9afbad7706eb893f847cd44db3bb3252999c1cc18f20",
          "blockNumber": "0x12c41c5",
          "transactionHash": "0x11bbb83aba5ae437261209f9d31d4b4b63dfb959780db97ce4c1bd40e6b95c00",
          "transactionIndex": "0x0",
          "logIndex": "0x1",
          "removed": false
        }
      ],
      "status": "0x1",
      "logsBloom": "0x00000000000000000000000000000000000000000000000000800000000000000000000000000000200000000000000000000000000000000000000000000000000000000000000000000010000000000001000000000000000000000000000000000000020000004000000000000800000000000000000000000000010000400000000000000000000000000000000000004000000000000000000000000008000000000000001000000000000000000000000000000000000000000000000000000000000000000800008000000000000000100020000000000000000020000000000000000000000000000000000080000000000000000000000000000000",
      "type": "0x2",
      "effectiveGasPrice": "0x384683fe1"
    },
    {
      "transactionHash": "0x1b3524ce289219a7b9c1a30469f1cdba0ad2f68366713be5e887c2ecaf4255b4",
      "transactionIndex": "0x0",
      "blockHash": "0xcfa25b8c65e1ae40d8f3cb3c91e5223052c0f19285ba9d5e2c2253fb4ef8a97f",
      "blockNumber": "0x12c41c6",
      "from": "0xBBD3321f377742c4b3fe458b270c2F271d3294D8",
      "to": "0x707C39F1AaA7c8051287b3b231BccAa8CD72138f",
      "cumulativeGasUsed": "0x7bbf8",
      "gasUsed": "0x7bbf8",
      "contractAddress": null,
      "logs": [
        {
          "address": "0x6eA5E28FAcbFfed49547e1f358bbEf7f22Ec03Be",
          "topics": [
            "0x8af78f9b00e7e7acd1c912b28b5f54f3cab741c2c3e143fdb027e6d5d5ba5718"
          ],
          "data": "0x000000000000000000000000973351191dcc578fc1ce3c650102baacb76310ba",
          "blockHash": "0xcfa25b8c65e1ae40d8f3cb3c91e5223052c0f19285ba9d5e2c2253fb4ef8a97f",
          "blockNumber": "0x12c41c6",
          "transactionHash": "0x1b3524ce289219a7b9c1a30469f1cdba0ad2f68366713be5e887c2ecaf4255b4",
          "transactionIndex": "0x0",
          "logIndex": "0x0",
          "removed": false
        },
        {
          "address": "0x973351191dcC578fC1CE3c650102BAacb76310Ba",
          "topics": [
            "0x8be0079c531659141344cd1fd0a4f28419497f9722a3daafe3b4186f6b6457e0",
            "0x0000000000000000000000000000000000000000000000000000000000000000",
            "0x000000000000000000000000bbd3321f377742c4b3fe458b270c2f271d3294d8"
          ],
          "data": "0x",
          "blockHash": "0xcfa25b8c65e1ae40d8f3cb3c91e5223052c0f19285ba9d5e2c2253fb4ef8a97f",
          "blockNumber": "0x12c41c6",
          "transactionHash": "0x1b3524ce289219a7b9c1a30469f1cdba0ad2f68366713be5e887c2ecaf4255b4",
          "transactionIndex": "0x0",
          "logIndex": "0x1",
          "removed": false
        },
        {
          "address": "0x973351191dcC578fC1CE3c650102BAacb76310Ba",
          "topics": [
            "0xa4336c0cb1e245b95ad204faed7e940d6dc999684fd8b5e1ff597a0c4efca8ab",
            "0x000000000000000000000000d83b4686e434b402c2ce92f4794536962b2be3e8"
          ],
          "data": "0x",
          "blockHash": "0xcfa25b8c65e1ae40d8f3cb3c91e5223052c0f19285ba9d5e2c2253fb4ef8a97f",
          "blockNumber": "0x12c41c6",
          "transactionHash": "0x1b3524ce289219a7b9c1a30469f1cdba0ad2f68366713be5e887c2ecaf4255b4",
          "transactionIndex": "0x0",
          "logIndex": "0x2",
          "removed": false
        },
        {
          "address": "0x0e3D652E776fA883647C8D360ad9ad77f8e1B5a7",
          "topics": [
            "0x3774cf38e30b068db1f04da17acc1ec29718426ab79bf23c80ddd83166600cef",
            "0x000000000000000000000000973351191dcc578fc1ce3c650102baacb76310ba",
            "0x0000000000000000000000000000000000000000000000000000000000000000",
            "0x0000000000000000000000000000000000000000000000000000000000000000"
          ],
          "data": "0x000000000000000000000000a98cd8e96ec997af48c1700c87d77c09d5eb87070000000000000000000000000000000000000000000000000000000000000012",
          "blockHash": "0xcfa25b8c65e1ae40d8f3cb3c91e5223052c0f19285ba9d5e2c2253fb4ef8a97f",
          "blockNumber": "0x12c41c6",
          "transactionHash": "0x1b3524ce289219a7b9c1a30469f1cdba0ad2f68366713be5e887c2ecaf4255b4",
          "transactionIndex": "0x0",
          "logIndex": "0x3",
          "removed": false
        },
        {
          "address": "0x973351191dcC578fC1CE3c650102BAacb76310Ba",
          "topics": [
            "0x020b0eb6b927cc8fd11512cbae008d6f91a7524a39383a85f932ecf6d9b2ee0c",
            "0x0000000000000000000000000000000000000000000000000000000000000000"
          ],
          "data": "0x0000000000000000000000003a2819b07981234f825e952f32cf977db5edbf7c000000000000000000000000a98cd8e96ec997af48c1700c87d77c09d5eb8707",
          "blockHash": "0xcfa25b8c65e1ae40d8f3cb3c91e5223052c0f19285ba9d5e2c2253fb4ef8a97f",
          "blockNumber": "0x12c41c6",
          "transactionHash": "0x1b3524ce289219a7b9c1a30469f1cdba0ad2f68366713be5e887c2ecaf4255b4",
          "transactionIndex": "0x0",
          "logIndex": "0x4",
          "removed": false
        },
        {
          "address": "0x973351191dcC578fC1CE3c650102BAacb76310Ba",
          "topics": [
            "0x456bef0ffdbfeb339cb88afbee490d63c29dc5f025ac12112fb45eacbf99e036"
          ],
          "data": "0x00000000000000000000000000000000000000000000000000000000000000a0000000000000000000000000000000000000000000000000000000000000010000000000000000000000000000000000000000000000000000000000001baf8000000000000000000000000000000000000000000000000000000000001baf80000000000000000000000000000000000000000000000000000000000012750000000000000000000000000000000000000000000000000000000000000000010000000000000000000000000000000000000000000000000000000000000bb80000000000000000000000003a2819b07981234f825e952f32cf977db5edbf7c00000000000000000000000000000000000000000000000000000000000000010000000000000000000000006c306e34a8cf50f12a70596cd83c65be9df51157000000000000000000000000bbd3321f377742c4b3fe458b270c2f271d3294d80000000000000000000000000000000000000000000000000000000000000001",
          "blockHash": "0xcfa25b8c65e1ae40d8f3cb3c91e5223052c0f19285ba9d5e2c2253fb4ef8a97f",
          "blockNumber": "0x12c41c6",
          "transactionHash": "0x1b3524ce289219a7b9c1a30469f1cdba0ad2f68366713be5e887c2ecaf4255b4",
          "transactionIndex": "0x0",
          "logIndex": "0x5",
          "removed": false
        }
      ],
      "status": "0x1",
      "logsBloom": "0x00000008000000000000010000400000000000200014000000800000000000000000000100000000000000000000000000000000000000020000008000000000000000000000000000000000000040000001000000000000000002000000002000000000020000004000000000040800000000000000000000000000000002400000000000000000000000000000000000014000000000000000000080000000000000200000000000000000800000000000800000000100020000000000000000000000000000000000008000000000000000000000000000000000000020000000000000000000000000000000044000004000002000021000400000010000",
      "type": "0x2",
      "effectiveGasPrice": "0x32cd078dc"
    },
    {
      "transactionHash": "0xa0ab30d36d90596ff0a57d4d207e7d7a46abe54238deffb4ba1a1ed76ca5c2ae",
      "transactionIndex": "0x1",
      "blockHash": "0xcfa25b8c65e1ae40d8f3cb3c91e5223052c0f19285ba9d5e2c2253fb4ef8a97f",
      "blockNumber": "0x12c41c6",
      "from": "0xBBD3321f377742c4b3fe458b270c2F271d3294D8",
      "to": "0x707C39F1AaA7c8051287b3b231BccAa8CD72138f",
      "cumulativeGasUsed": "0x88452",
      "gasUsed": "0x88452",
      "contractAddress": null,
      "logs": [
        {
          "address": "0xD2168C6c33fEe907FB12024E5e7e9219083fBb19",
          "topics": [
            "0x62ef726a6aa14aa74096b251c6318775d5a59699f09be6cc5d26091d22dc7c5d",
            "0x000000000000000000000000973351191dcc578fc1ce3c650102baacb76310ba"
          ],
          "data": "0x0000000000000000000000000000000000000000000000000000000000000020000000000000000000000000000000000000000000000000000000000000008000000000000000000000000000000000000000000000000000000000000000c0000000000000000000000000000000000000000000000000000000000000014000000000000000000000000000000000000000000000000000000000000001c00000000000000000000000000000000000000000000000000000000000000013556e696f6e20536166657479204d6f64756c650000000000000000000000000000000000000000000000000000000000000000000000000000000000000000585468697320736166657479206d6f64756c652070726f746563747320556e696f6e20757365727320616761696e7374207369676e69666963616e74206861636b732c20627567732c206f72206d616c66656173616e63652e0000000000000000000000000000000000000000000000000000000000000000000000000000004c68747470733a2f2f6173736574732e636f696e6765636b6f2e636f6d2f636f696e732f696d616765732f33303535362f7374616e646172642f4d61726b2e706e673f31373132353630393031000000000000000000000000000000000000000000000000000000000000000000000000000000000000000000000000000000457b5c70726f74656374696f6e436170416d6f756e745573645c3a5c5c2c5c73686f727466616c6c446973747269627574696f6e4d6574686f645c3a5c50726f726174615c7d000000000000000000000000000000000000000000000000000000",
          "blockHash": "0xcfa25b8c65e1ae40d8f3cb3c91e5223052c0f19285ba9d5e2c2253fb4ef8a97f",
          "blockNumber": "0x12c41c6",
          "transactionHash": "0xa0ab30d36d90596ff0a57d4d207e7d7a46abe54238deffb4ba1a1ed76ca5c2ae",
          "transactionIndex": "0x1",
          "logIndex": "0x6",
          "removed": false
        }
      ],
      "status": "0x1",
      "logsBloom": "0x00000000000000000000100000000000000000000000000000000000000000000000000000001000000000000000000000000000000000000000000000000000000000000000000000000000000040000000000000000000000000000000020000000000000000000000000000000000000000000000000000000000010000000000000004000000000000000000000000000000000000000000000080000000000000000000000000200000000000000000000000000000000000000000000000000000000000000000000000000000000000000000000000000000000000000000000000000000000000000000000000000000000000020000000000000000",
      "type": "0x2",
      "effectiveGasPrice": "0x32cd078dc"
    }
  ],
  "libraries": [],
  "pending": [],
  "returns": {},
  "timestamp": 1713386406,
  "chain": 1,
  "commit": "6ea9908"
}