{
  "transactions": [
    {
      "hash": null,
      "transactionType": "CALL",
      "contractName": null,
      "contractAddress": "0x707C39F1AaA7c8051287b3b231BccAa8CD72138f",
      "function": "updateSafetyModuleMetadata(address,address,(string,string,string,string))",
      "arguments": [
        "0xD2168C6c33fEe907FB12024E5e7e9219083fBb19",
        "0x5927fC5ec0D9Ec40F1e5593E19F1F3AFd3839fDB",
        "(\"Union Safety Module\", \"\", \"\", \"{\\\\protectionCapAmountUsd\\\\:\\\\\\\\,\\\\shortfallDistributionMethod\\\\:\\\\Prorata\\\\}\")"
      ],
      "transaction": {
        "type": "0x02",
        "from": "0xbbd3321f377742c4b3fe458b270c2f271d3294d8",
        "to": "0x707c39f1aaa7c8051287b3b231bccaa8cd72138f",
        "gas": "0xfd07",
        "value": "0x0",
        "data": "0x99819dd3000000000000000000000000d2168c6c33fee907fb12024e5e7e9219083fbb190000000000000000000000005927fc5ec0d9ec40f1e5593e19f1f3afd3839fdb0000000000000000000000000000000000000000000000000000000000000060000000000000000000000000000000000000000000000000000000000000008000000000000000000000000000000000000000000000000000000000000000c000000000000000000000000000000000000000000000000000000000000000e000000000000000000000000000000000000000000000000000000000000001000000000000000000000000000000000000000000000000000000000000000013556e696f6e20536166657479204d6f64756c65000000000000000000000000000000000000000000000000000000000000000000000000000000000000000000000000000000000000000000000000000000000000000000000000000000000000000000000000000000000000000000000000000000000000000000000000457b5c70726f74656374696f6e436170416d6f756e745573645c3a5c5c2c5c73686f727466616c6c446973747269627574696f6e4d6574686f645c3a5c50726f726174615c7d000000000000000000000000000000000000000000000000000000",
        "nonce": "0x1",
        "accessList": []
      },
      "additionalContracts": [],
      "isFixedGasLimit": false
    }
  ],
  "receipts": [],
  "libraries": [],
  "pending": [],
  "returns": {},
  "timestamp": 1712681471,
  "chain": 1,
  "commit": "b281a57"
}